:1000000045C0000060C000005EC000005CC0000091
:100010005AC0000058C0000056C0000054C0000084
:1000200052C0000050C000004EC000004CC0000094
:100030004AC00000ACC0000046C0000044C0000040
:1000400042C0000040C000003EC000003CC00000B4
:100050003AC0000038C0000036C0000034C00000C4
:1000600032C0000030C000002EC000002CC00000D4
:100070002AC0000028C0000026C0000024C00000E4
:1000800022C0000020C000001EC0000011241FBEBE
:10009000CFEFD0E4DEBFCDBF11E0A0E0B1E0E2E8F9
:1000A000F2E000E00BBF02C007900D92A430B10750
:1000B000D9F721E0A4E0B1E001C01D92A832B20757
:1000C000E1F7B3D0DCC09CCF20B1FC01E85FFE4F6C
:1000D00020838730910514F40196089580E090E024
:1000E0000895FC01E85FFE4F208128B921E030E04F
:1000F000082E02C0220F331F0A94E2F720952BB975
:100100008730910514F40196089580E090E00895F9
:10011000EF92FF920F931F93CF93DF93C0E1D1E053
:100120000F2EF8E2EF2EF1E0FF2EF02D8E014E8122
:100130005F81688579858A819B81AC81BD81481703
:1001400059076A077B0758F0EA85FB858881998102
:100150000995998388831E821F8218861986F80163
:1001600086819781A085B18586509F4FAF4FBF4F45
:1001700086839783A087B1872C96CE15DF05B1F6CD
:10018000DF91CF911F910F91FF90EF9008951F92F3
:100190000F920FB60F9211240BB60F922F933F932D
:1001A0004F935F936F937F938F939F93AF93BF937F
:1001B000EF93FF938091040190910501A0910601B6
:1001C000B09107010197A109B109809304019093AF
:1001D0000501A0930601B0930701892B8A2B8B2B75
:1001E00089F496DF8091000190910101A0910201B4
:1001F000B09103018093040190930501A09306013F
:10020000B0930701FF91EF91BF91AF919F918F91B3
:100210007F916F915F914F913F912F910F900BBE06
:100220000F900FBE0F901F90189511B88FEF82B9E5
:1002300087B918B88AB91BB8E0E1F1E011821082E1
:100240008AEF90E0A0E0B0E082839383A483B5833B
:10025000168217821086118624E630E033872287C3
:100260001586148686879787A08BB18B128A138A8E
:10027000148A158A81E790E0978B868BFFCFF894DC
:02028000FFCFAE
:040282000100000077
:00000001FF
