:1000000045C0000060C000005EC000005CC0000091
:100010005AC0000058C0000056C0000054C0000084
:1000200052C0000050C000004EC000004CC0000094
:100030004AC0000043C1000046C0000044C00000A8
:1000400042C0000040C000003EC000003CC00000B4
:100050003AC0000038C0000036C0000034C00000C4
:1000600032C0000030C000002EC000002CC00000D4
:100070002AC0000028C0000026C0000024C00000E4
:1000800022C0000020C000001EC0000011241FBEBE
:10009000CFEFD0E4DEBFCDBF11E0A0E0B1E0EEE3F2
:1000A000F4E000E00BBF02C007900D92A430B1074E
:1000B000D9F721E0A4E0B1E001C01D92A631B2075A
:1000C000E1F75BD1BAC19CCF813081F0E1ECF0E087
:1000D000808188618083E2ECF0E0808186608083AB
:1000E00083E38093C4001092C5000895E9ECF0E02A
:1000F000808188618083EAECF0E080818660808383
:1001000083E38093CC001092CD000895813029F4D0
:100110008091C800882374F008958091C0008823DE
:100120008CF4A6ECB0E0E0ECF0E08C9180818823C8
:10013000E4F30895AEECB0E0E8ECF0E08C9180815F
:100140008823E4F30895613041F0E0ECF0E0908121
:1001500095FFFDCF8093C6000895E8ECF0E0908114
:1001600095FFFDCF8093CE000895CF93DF9381302C
:10017000910549F08230910511F0892B49F412B8AC
:10018000C1E0D0E009C081E082B9C2E0D0E004C0A3
:1001900082B182B9C0E0D0E082B161E0D4DFCE01AB
:1001A000DF91CF910895813041F0E0ECF0E0808163
:1001B0008823ECF78091C6000895E8ECF0E0808198
:1001C0008823ECF78091CE000895CF93DF93EC0164
:1001D0008091C000882354F480E0E5DF82B961E0BB
:1001E000B2DF80E093DF1092150105C08091150108
:1001F0008F5F809315018091C80086FF02C081E067
:1002000085DF8091C000882314F480E07FDFCE0179
:10021000DF91CF9108958BE0809381008DE790E08E
:10022000909389008093880082E080936F00109201
:100230008500109284008091000190910101A091AD
:100240000201B09103018093040190930501A093F2
:100250000601B09307018FB780688FBF0895CF93D1
:10026000DF93E8E0F1E04681578160857185828106
:100270009381A481B581481759076A077B0768F005
:10028000EF010284F385E02D888199810995998396
:1002900088831E821F8218861986E8E0F1E0868135
:1002A0009781A085B18586509F4FAF4FBF4F868302
:1002B0009783A087B187DF91CF9108951F920F9206
:1002C0000FB60F9211240BB60F922F933F934F93BB
:1002D0005F936F937F938F939F93AF93BF93EF93AE
:1002E000FF938091040190910501A0910601B091C6
:1002F00007010197A109B1098093040190930501B9
:10030000A0930601B0930701892B8A2B8B2B89F4CC
:10031000A6DF8091000190910101A0910201B091AE
:1003200003018093040190930501A0930601B0930B
:100330000701FF91EF91BF91AF919F918F917F91B5
:100340006F915F914F913F912F910F900BBE0F9046
:100350000FBE0F901F9018956093000170930101DC
:10036000809302019093030160930401709305014F
:10037000809306019093070108958FEF81B912B819
:1003800014B885B987B918B81092140180E09CDEC2
:1003900081E09ADEE8E0F1E0118210828AEF90E0DD
:1003A000A0E0B0E082839383A483B5831682178292
:1003B0001086118685EE90E0938782876AEF70E061
:1003C00080E090E0C9DF27DF0F2EF1E8CF2ED12C9F
:1003D000F02D11E0C8E0D1E00F2EF8EE8F2EF3E003
:1003E0009F2EA12CB12CF02D0F2EF5EBEF2EF0E06F
:1003F000FF2EF02D8091140188B9809115018B306A
:10040000C8F3F601108210931401198218828A82AF
:100410009B82AC82BD821E821F8218861986FB8653
:10042000EA866AEF70E080E090E096DFF4DE82B169
:0E043000612F89DE10921501DDCFF894FFCF09
:04043E0001000000B9
:00000001FF
